:100000000C942A000C9434000C9434000C943400AA
:100010000C9434000C9434000C9434000C94340090
:100020000C9434000C9434000C9434000C94340080
:100030000C9434000C9434000C9434000C94340070
:100040000C9434000C9434000C9434000C94340060
:100050000C94340011241FBECFE5D4E0DEBFCDBF29
:100060000E9436000C944F000C9400008FEF8ABB66
:100070001BBA81BB12BA28EC30E04FEF1BBA80E20A
:100080009EE4F9013197F1F70197D9F74BBB80E274
:100090009EE4F9013197F1F70197D9F7EFCFF89482
:0200A000FFCF90
:00000001FF
